:100000000C94011C0C941E1C0C94391C0C941E1C8A
:100010000C941E1C0C941E1C0C941E1C0C941E1C78
:100020000C941E1C0C941E1C0C9414300C941E1C5E
:100030000C941E1C0C941E1C0C941E1C0C941E1C58
:100040000C941E1C0C941E1C0C941E1C0C941E1C48
:100050000C941E1C401F431F4B1F4D1F4F1F511F51
:10006000531F551F5220C6205A20242028205E20CE
:100070002B2061206C203620BC203A2070203E20AE
:1000800074209E2042207820A82048207E208820AE
:100090002F206520322068204D2083209420B4201A
:1000A000B62020205620CF20FD200321EE20F42072
:1000B00009210F21152174217421AF21AF21DB21EA
:1000C000FF22FF22FF22F7218E229F229F22008003
:1000D0008292929080888080808181C9434084840C
:1000E00000444444040484C0C2C26030101848086C
:1000F00008181838F8F8F1F1E0C0E3E7EE8D9FFE3C
:10010000FFFDF9FAFAF3F1FEFF7F7EFFFFFCFBFB38
:10011000FFFFFFF7F7FFFFFFFFFFFFFEFEFEFFF70A
:10012000FFFFFFFF7D7DFFDF7F3DBD3D7D7C7CBC14
:10013000FC7E3C1D1D1FFEFE3E3F37FFFBFBBB7DD3
:10014000711D0D2D1E9C8D5E3F3331080C8C0010EF
:100150000000000000000101040400010101010091
:10016000808480E0C1C1614140C0C48090222326C8
:10017000262C0E0C0C2C3CFCF9F9F9FBFFFFFFBF01
:10018000F7FBDFFFFFBFE7BFBEEFDFFFFFFFE7F3D8
:10019000CFC7BF9F9FFFF7DFDFFBFBB6FEFFFFFE72
:1001A000FEFEFEEE6E6F6E66E7E7C7C7A3030707A6
:1001B0000343C343031C9FE2E0E143C3E3F3F1F9CC
:1001C000390D07C2C03000181C1C46420301000054
:1001D0000001010000000000000000000404020310
:1001E000812110101018180800008084808080C0C1
:1001F000C0C0C0E0E1353E3F1F1F1FDFCFCF6F679C
:10020000474F47671F3F9E5F5F3F3F7FFEFEFF7F79
:100210007F3F1FDE9E9ECFCFCFEFCFE3C3C3C6C6C7
:10022000C4C0808407068082838180C4C1C1E1612B
:100230007078383C3E3B393060C0C09406070F05EB
:1002400000000400060001010000000000000000A2
:10025000000000000000000000000000008080801E
:10026000000000010021313A1B0C0E0F07070303A9
:100270000100010080D8ECF6F2F3F18D03FCFCF0F4
:10028000E0C0B8F8FCFCFCF9F3F3F3E2E0E0E2E2F2
:1002900073331B0B0581C0E0F0F8E0F0F0F0C0CF45
:1002A000F7FBFFFFFFFFF3E3E3E1E1E57960606166
:1002B000603830303818181E0F0F0707070300008A
:1002C00000000000000000000000000000000080AE
:1002D0008292929080888080808181C14141808516
:1002E000414646020686C6C6C3C362F1F1797978F3
:1002F000787CBCFDFFFFFFFFFFFFFFFFFFFDFFFF5F
:10030000FFFDFFFAFEF7F1FEFF7F7EFFFFFCFBFB28
:10031000FFFFFFF7F7FFFFFFFFFFFFFEFEFEFFF708
:10032000F7FFFB7F7D7D3F9F8F8D8D8DE4F4FCCCAF
:10033000FCFCF8F1C0E0E0E4F6F070F8F9FCFC7CBD
:10034000FEBE3F2F9F9FBF7F3F3B330F0D8F00109F
:100350000000000040000101000400000100000056
:1003600000000000210143030000000000020323FD
:10037000060E0E1C0C2D3DBDFFFFFFFBFFFFFFBF58
:10038000F7FFDFFFFF9FAFBFBEEFDFFFFFFFFFFB0A
:10039000DFF79F9FBFFFFFFFDFFFFBB6FEFFFFFF03
:1003A000FEFEFFFFFFFFFFFFFFFFFFFFFFA787A787
:1003B00007C3C3C31B1FDFF6F0F97BD767F3FB79D5
:1003C0001D0F0FC6E03010181C1C4E66270D8080D4
:1003D0008081818080808000000000000404028110
:1003E00081F090F0F8783838707070746060C0C038
:1003F000C0C0808080602020000104C6C3C3C3C782
:10040000474F47671F1F9E5F5F3F7F7FFFFEFFFFD6
:100410007FBFFFDFBFFFCFEFEFEFFFF7F3FBF7F695
:10042000FEFE7E7E7F3F7F7F3F3F3F3F3F378F0710
:100430002636361E37373F373733373F3F3F3F2764
:1004400023276767672607030303060607060303D8
:10045000030303030307060606060206020203035C
:100460000303010300040500000000000000000079
:100470000000018180D0FEF6FBFBFBCFF1FCFCF01D
:10048000E4F0F8F8FCFCFCFFFFFFFFFEFFFFFFFFBE
:100490007F3FBF9F5F9BDFFFFFFFEFFDFFFFCFDFD2
:1004A000EFFFFFFFFFFFC383030303030B01010003
:1004B0000000000000000040C0000000000000003C
:1004C0000000000000000000000000000000E0E06C
:1004D000E2F3D292C8C8D0DCD8C1C1EBCBC1C7C748
:1004E000C7C74FC7C686C6CFC3E3F3F3F9FDFD7E8A
:1004F0007E3F3BFBF9FFFFF7E7E3E3E7EEEFFFFEAD
:10050000FFFDFFFAFAF7F1FEFF7F7EFFFFFCFBFB2A
:10051000FFFFFFF7FFFFFFFFFFFFFFFEFEFFFFFFF5
:10052000FFFFFFFFFFFFFFFFFFFFBF9FFFFFFDFF7D
:10053000FFFF3F3F1F07EFE737B371FBF9F9F87C87
:1005400070BC3C2D1C9C8DDE3F3B31180C8C111176
:1005500099820DCF6F4F07070F0F0F1F4F0F0F9F80
:10056000BFFF7F7F7B7F7FFFF7EFFDF9F37373277B
:10057000372F0E1E3C3C3DFDFDFBFFFBFFFFFFFF49
:10058000F7FFDFFFFF9FEFFFBFFFFFFFFFFFFFFF53
:10059000FFFFFFFFBFFFFFFFDFFFFBFFFFFFFFFFCF
:1005A000FFFFFFFFFFFFFFFFFFFFFFDFFFBFAF8783
:1005B0000FCBCBDF1F1FDFEEE6E76FC767F7FB3B15
:1005C0001F0D0FC6E03010101C9C46632301000075
:1005D00000010100040080020000040404CED7CF13
:1005E000EFF3FAF8F8F8F8F8FCFEFDEC6CEC6D4C63
:1005F000CCCE8E8686F727236F7FFFFFFFFBF37B32
:10060000F7EFFFF7FFFFFFFFFFFFFFFFFFFEFF7F9B
:100610007FFFFFFFFFBFFF7F7FEFFFFFF3FFFFBF06
:100620003F1F3F2F1F0F1F07070303070301818190
:100630000000108CC6E2E1E0F0F0F87C7E7F7F7C69
:1006400038787C74646061E1C0C0C0C0C0800000C4
:100650000000000000000000000088FEFFFCFCFF1E
:10066000F6F6F7E7E7E7672701010103010001015B
:100670000000000080D8FEF6F3FBFF8F33FFFFF38E
:10068000E7C7FFFFFDFFFFFFFFF7F7FFFFEDEEFFFF
:1006900077371B0B0D83C2E3F6FBEFF7F7F7CFFFBE
:1006A000EFFFFFFEFEFCF0F070783C3E3D1E0E07B3
:1006B00006070F0303010100000000000000000016
:1006C000000000000000000000000101010700829E
:1006D000829393938F8F9DDFDFDFDBEBCFC7CFCF8D
:1006E000CFEFEFEFDFDFDFDFDBFBF3F3F9F9F9F853
:1006F000FCFCF8F8FCFFFFFDFCF9FFF7EEEDFFFE58
:10070000FFFDFFFAFAF7F1FEFF7F7EFFFFFCFBFB28
:10071000FFFFFFF7FFFFFFFFFFFFFFFEFEFEFFF7FC
:10072000FFFFFF7F7D3D7F5F0B2D8D8DE4F4FCFC93
:10073000EC7C78B99CF8FCF4F6FEFCFEFFFFFF7F32
:10074000FFFF3F3F3F9FFFFF7F7F3F1F2F9FF9F935
:10075000F9FDFDFFFEFF7FBF2F7FDF7F3F6F0F1F84
:10076000BFFF7F7F7FFFFFFFFFFFFFEFFFFFF7F779
:10077000F7FF7F7F6F7DFDFDFFFFFFFBFFFFFFFFAB
:10078000F7FFDFFFFFBFEFBFBFEFDFFFFFFFF7F3B5
:10079000DFCF9F9F9FFFFFFFDFFFFBB7FEFFFFFE47
:1007A000FEFEFFEFEFEFEFFFFFEFEBFBFFFFE7A733
:1007B000A7C3EBFBCFDFDFEFE7EFFFF777F3FBFB41
:1007C0003D0D0FC7E23000181C9C4E472309010164
:1007D000018181C8C4E4F6F2FEFEFEFEFCFEFEFFCF
:1007E000FFFFFEDEF83818888C848FCECC8C8D46C7
:1007F000C6C6878B8F6723818483C7C7C7C3C36778
:10080000474F47677F3F9F5F5F3F3F7FFFFEFF7F11
:100810007FBF9F9F9FDF4F4F4F6FCFFFDFBFAFBCAB
:10082000BEBE9E1F5F5F1F1F07070F07078183C1A3
:10083000C1D1DBCDE7673F363018183C3E1F1F0E95
:100840000E0E0F0E0604010301000000100010F848
:10085000FFFFDFFF9F0F4606060606070703010797
:1008600007073FEF6F7BF7F7FFEFEFE5F1F1F3F9E4
:10087000181C2C0F86FFFFFFFFFFFFCFF3FCFCF8D7
:10088000E0C0FCF8FCFCFCFBF3F7FFFAFEFEFEFE0A
:100890007F3FBFDF6FAFDEEFF7FFEFF7F7F7C7DFA1
:1008A000F7FFFFFFFFFFDF9F9EBEBE9FFBFBF1F147
:1008B000757C7C3032301818181818080C8C8CCCC9
:1008C0008084C4C06070703838381A1E1E1F0080C3
:1008D0008292929080888094C081C1C3C1C0C0843C
:1008E000C743C2C6C6C6C6C6C2E0E3F0F07878F811
:1008F0007878F8F8F8F8F9F9F8E0E3E7EED99FFE30
:10090000FEFDFBFAFEF7F1FEFF7F7EFFFFFDFBFB26
:10091000FFFFFFF7FFFFFFFFFFFFFFFEFEFFFFFFF1
:10092000FFFFFFFB7F7D3F1F0F0C8D8DE4F4DCECA0
:10093000E4741010000060E402103070F9F87838A8
:10094000301C0C040C9C8C1C3E3331080C8C11990F
:100950009084F9ECFCF7F7717D7F5F176F6F0703E9
:10096000BB7F7FBFABE767EF674705113102030726
:10097000260C0E0D0D0C3CBDFDF9F9FBFFFFFFBF72
:10098000F7FFDFFFFF9FAFBFBFEFDFFFFFFFFFFB03
:10099000FFFFFFFFBFFFFFFFDFFFFBF7FFFFFFFFD3
:1009A000FEFEFEFFFFFFFFFFFFFFFFFFFFFFFFE772
:1009B000E7C7E7F3171FDFE7E3E3FBD777F3FBF9BD
:1009C000BD8FEFE6E0F0D8F8FCFCEEE7F3FDFCFFAE
:1009D0007F3FBF1F1F9F0602021004060404060388
:1009E00001211101000808000000000400000000BF
:1009F0000080000000202000000000C6E7C3C3E71D
:100A0000E76F67777F3FEF5F5F3F7F7FFFFEFF7F8F
:100A10007F7F9F9F9F9F4F4F4F6FCFFFF7BFBFBFFE
:100A20003F3F7F7F7F7F7F7FF7F7F7F7F3F3F37128
:100A30007078781C1F1F1F1F0C1C1E1E1F0F1F0FFE
:100A40000F0F0F0F0707070707030303070701002F
:100A50000000000000000000000000000000000096
:100A60000000000000000000000000000000000086
:100A70000000000080C8FEF6F2FFFFFF3FFFFFF915
:100A8000F0F2FBF8FCFCFCFBF3F7F3F6FEECE8E617
:100A900073331B0B0781C0E0F0F8E0F0F0F080DF6B
:100AA000FFFBFBFFFEECD6860000000908010100F9
:100AB00000040400000000003000000000000000FE
:100AC00000000000000000000000000000000080A6
:100AD0008292929080888080808181C3C3C0858407
:100AE00000464644068686C2C3C260305058584805
:100AF00008181838F8F9F1F1E0C0E3E7EECD9FFEF1
:100B0000FFFDFBFAFAF3F1FEFF7F7EFFFFFCFBFB2C
:100B1000FFFFFFF7FFFFFFFFFFFFFFFEFEFEFFF7F8
:100B2000F7FFFF7F7D7DFB7F7F7DBD3D3CFCBCDC17
:100B30007C7E3C3F1C1E7EFE3F3F7F7FFFBB7B7D5C
:100B400031391D2D1C9C9DDE3F3B31180C8C101043
:100B50000000008040400101000001414100000010
:100B6000808080C4C1C547434140C04040622326C5
:100B7000260C0E0C0C2C3CFCFDF9FBFBFFFFFFFFD1
:100B8000F7FBDFFFFFDFAFBFBEEFDFFFFFFFF7F3D6
:100B9000C3E79F9FBFFFF7DFDFFFFBB7FEFFFFFE4F
:100BA000FEFEFEEE6E6F6EEF67E7C3C3330307070B
:100BB0000343C343031E9FE2E0E1E3C7E3F3F9F914
:100BC000BD0507C3E03000181C1C4643230100008C
:100BD0000001010000000000000000000404020306
:100BE00001211190101018080000028CC48080C0F0
:100BF000C0C0C0E0E47F3F3F1F1B1FCFCF8F4F6FB0
:100C0000474F47677F1F8F1F5F3F7F7FFFFEFF7F3D
:100C10007F3F5FDF9F9FCFCFCFEFEFE3E3C3C7C639
:100C2000C4C88C8404868281838381C5C1E1E1616B
:100C30007078387C7E7AB938E0C0C8EC26070D059C
:100C40000000020406000101000000000000000096
:100C50000000000000000000000000000080808014
:100C600000000200220134181E0C0F0F07070301B9
:100C70000101000080C0ECF6F2FBE38301FCFCF014
:100C8000E0C0F8F8FCFCFCF9F3F1F3E2E0E0E2E2AA
:100C900073311B8B0181C0E0F0F8E0F0F2F2E0DF8D
:100CA000F7FFFBFBFFFBF3E363E1E3EDED6961615C
:100CB000723C303038391D1E0F0F07070703000044
:100CC00000000000000000000000000000000080A4
:100CD0008292929080888080808181C2C340838488
:100CE00002464646008486C2C3C060B03018180869
:100CF00008181838F8F0F1E1E0C0E3E7EECD9FFE08
:100D0000FFFDD9FAFAF3F1FEFF7F7EFFFFFCFBFB4C
:100D1000FFFFFFF7F7FFFFFFFFFFFFFEFEFEFFF7FE
:100D2000F7FFFF7B7D393B1F0B0D0D0504241C0CC9
:100D3000042410000000402000103010F1B83838B2
:100D400030080C040C980C1C1E3111080C8C00008F
:100D50000000000000000101000401000101010089
:100D60000004042001010101000000000002030250
:100D7000060C0E0C0C0C3C3CF9F9F9FBFFFFFFBF15
:100D8000F7FBDFFFFF9FAFBFBECFDFFFFFFFF7F334
:100D9000C3C7BF9FBFFFF7DFDFFBFBB7FEFFFFFE51
:100DA000FEFEFEEEEE6F6F67676743830303070780
:100DB00003008203010880E0606002022331713980
:100DC000180C0640401000001C1C460203010000E5
:100DD0000000000000000000000000000000000013
:100DE00000201000000008000000000000000000CB
:100DF000000000000020000000000006838343473D
:100E0000474F47471F1E8E1E1F3F3F7FFEFEFF7F3F
:100E10007F3F1F1F1E1F4F4F4F4F0F0383030606B9
:100E200004000000000000000200000000000101BA
:100E300000000000020000000000000000040100AB
:100E400000000000000000010000000000000000A1
:100E50000000000000000000000000000000000092
:100E60000000000000000000000000000000000082
:100E70000000000080C0E8F6F2F3E18101FCFCF024
:100E8000E080B8F8FCFCFCF9F3F3F3E2E0E0E0E228
:100E900073311B090581C0E0F0F0E0F0F0F0800153
:100EA000E1F9F2F2F6ECC080000000000000000062
:100EB0000000000000000000000000000000000032
:100EC0000000000000000000000000000000FBFB2C
:100ED000F7F79F3F6FFBFF7F7FFFFEFFFFFFFFFFE7
:100EE000FFFFFFFFEFFFFFFFFFFFFFFFBFFFFFFF62
:100EF0007F87F8FFFF7F7F3FFFFFFFFFFFFF7FFF41
:100F0000FF0F71FEFBE3EDE2E3F3779AC5FCFFFF11
:100F1000FEFCFDEB105A1D9EBCB9E3F37936CF60A1
:100F20001FC1EF7F9F27C9FF3EDBCF677A49353569
:100F30007F7BF2EEEBE9FDDDFFDBD7F7E5ADABBB89
:100F4000B3B7F767777F7F7F3FFFFFFFBFBFFFFF2D
:100F5000FFFFFFFEFEFEFEFEEFFC7DBBB3BFEFFF1B
:100F6000FFEFFFFFFFFFFBFFEFF7DF6FBFDBEF7769
:100F7000ECB3994CDEDFDFDECFE1F9DFDF4F0FEFBF
:100F8000E1B7A8DC39F3E7EFDC5D59595B5B4B6BEC
:100F90002F2FEFAF1F67F7B70B33C904D2D3C4D2DB
:100FA000DBCD86BFA8B3C1C79EB8B68FBFBF9FDFDA
:100FB000DEDECEFCECEDE9E9EBE3E7F7F7F7F7F778
:100FC000F7F7F7F7F7F7F7FFFFFFFEFEFEFEFFFF6D
:100FD000FFDFFFFFF3F3F5EC1E7A7F7F7FFFFFFF5C
:100FE0001FEFFF0F17EAFBF5FEF6AEAFED5D5FDF1B
:100FF000DEBFBFBFBFBFBE7E7E7F41FEFFFEFEFCE9
:10100000F91BE7C79E7EBEFEFCFDFBFBFBFBFBFB6B
:10101000FBFBFBFBFFFCC03376EC59DBB6CDCBD73B
:10102000877777575767E737BB3F3FBF3FFFBF3FE4
:10103000DFDFDFDFDFDFDFCFEF6FEFEFEFA7B7F748
:10104000F777B3BB9BDBCBFDFDF5F5FCF6FEEF6F51
:101050006F5F7F7F7F7FFF7F7F7F7F7F7F7E7D7D55
:10106000FCFF7F7C3898A5E9A963C3C347C7C7C7FE
:101070008686868E8FCFCFCFCFCFCFE4E7EFEFE35B
:10108000EBCCCFDFD8B22F5F7F7F7F7F7FFFFFFF6B
:10109000FF7F7F7FBFBFBFDFD1DFDFFFBFBFBEBE30
:1010A000BC3BC778006601B7DF47904BA1B84FF251
:1010B000DDFFFBFFFFFFFF7FBEFFFFFFFFFFFFED39
:1010C000DB5ADB5F7FFFFFFFFFFFFFFFFFFFFFFB41
:1010D000F3FF8F7F7F7FFF7F7FFFFFFFFFFFFFFF1C
:1010E000FFFFFFFFFFFFBFFFFFFFFFFF7FFFB77F98
:1010F000FFFF7FFFFF7FBFBDFFF7FF1FE7F9FEFF89
:101100007F7F3F3FFFFFFFFFFFFFFFFF8F33BC5F8E
:101110002DA5DB7782D9E6B10C379A9BB859F1DD62
:10112000DDEEA793F3B19AEFED7637B79FDFDF6F70
:10113000AFB3D96FA7BF9FDFFF3F9FFFFE7D83FF48
:10114000F3F7F7F7F7FFFFBF3F3F7F7F3FBFFFFF9B
:10115000FFFFFFFFFEFE7EFEFFBEBDFB53DFDF7B1A
:10116000AFAFDDD75577ADAFAB4B4BCBEBE6E5E59E
:10117000E5E5E5E5E5C5C3A2EA4A62EFF5F9DAAED1
:10118000B7131B999399CDCDCECE2EEEEFE0C99D2E
:101190006CE6B0E39F3F6F6747EFCFDDDEDF7F7F19
:1011A0007F7F3FBEB2B5B1111B5A4EF730569A59E8
:1011B0002DAC96C763B4DBBDEE677B6F6D2EEFDFA2
:1011C0003F6FF7FBFBFBFBFDFBFBFDFFFBFBFFFFAB
:1011D000FFE773793FB499AC759BCCAE7797ABA919
:1011E0005D76C1A40E59B133D3E777DEDBB97D7FDD
:1011F000FEFEFEFEFEFFFFFFFFFFFFFFFFFFFFFF04
:10120000FF7F7F3F9F4F3FBFBBB3B695D3DBFFD779
:10121000E6747DB5BD6D6D6D657669DCC298B0AC68
:101220008B9999B9387AFCF7F3FBF5F2FAFDEEE702
:10123000DBDBD5D4B5B3B337786A7B7477736F676C
:101240005FCFBE9E3D7D7DFBFBFBF7F7FFEFEF6FB2
:101250006F5F7F7F7FFF03E4F37D7EFEFF0067B05B
:1012600056ABAD55592F76B6D44D2B93434B231A1D
:10127000E6F6FAE6F6F2F2F2FBFBFBFBFAF2F4F624
:101280008E1A5D591E2F4F2FAF7777777BD3D5F608
:10129000EEAFEFEFFFDFDFDF5FDFBFBFBE31C71BAA
:1012A000A3733B9959AF6C6DADDD6D6DEDEC6CEDDD
:1012B000E96BDB53D7D7DFDFFFBFBFBFBFBFBF3F88
:1012C000FFFE7E7E7F7EFE7EFEFEFEFDFDFDFBFBC5
:1012D000F3F78F3F7F7FDF7F7FFFFFFFFDFDE5F7A8
:1012E000F7FFFFFFFDFFFFFFFFFFFFFFE977FF00B5
:1012F0007FFFFF7FBFBF7FFFFFFFFFFFFFFFFFF00D
:10130000EDDEB155DE8A01F2FCFDF4E2E773E7B6EB
:10131000CCEEFFFFFEF0D3D73B5871373F69E0CDED
:10132000EB1781FC1F97D96EB3DC239FE779BC7F55
:101330004F709FADEDDB9D7DFFFBF7F5F5E9CBDB56
:10134000F3B7F7F7F7FFFFBF3F7F7F7F3FBFFFFF99
:10135000FFFFFFFFFEFEFEFEEFD67DBBB3D7DFFF34
:101360007F7F7FFBFFBF7F5F7FFFAFAFAFBEB7DF8A
:10137000F4C758F27B7DDFE4ED87215CC6E7E3E349
:10138000E5F5F6F69132EEDCB977676F6D6A1FAF5F
:10139000AF8F9F8FAFEF2FAF4FAE279787E79BC5DC
:1013A000A6B7958A757B00707CC6B5B453DBD8D9D7
:1013B000FDCAD99773636F6F5FDFDEBEBF7D7D7D32
:1013C0007F7B7B7B7BF7F7F5F7EFEFEFEBDAFFDF68
:1013D000FFCFEBF7F3F3F4EC7E7E7F7F7FFFF3FB31
:1013E000FDC73B7DEAEAFB7BD7F7F7FF8F73FBFD79
:1013F000FEFEFEFFFFFFFFFFFFFFFFFEFEFFFFFF02
:101400007F3F9FC73FBFDEFDFBFBE7D7DFD7E7FB93
:10141000FBF3FDF5FDFE11B4F7A0E76F6FDF9F3F13
:10142000CFCFCFCF4F4E6E0E4F4FDE9EDE5EDE7EB5
:10143000FE7E7E7F7F7F7F7F7F7F7E7E7E7F7E7F43
:101440007F7F7FBFBEBEBEBEBEBEBDBD9F9FEF6FD6
:101450006F5F7F7F7F7FFF7F7F7F7F7F7F7E7EFDD0
:10146000FCFDDF5E5E7CEC5DD179989155F3D2F1A5
:10147000F1F3F3F3F7F7F7F3FDF3F3F3F5F5F4F620
:10148000E6EFEFE8CC9B933737AF3F5F5F5FDFAFAF
:10149000AF2F773773747677777F6F6F6F6F6F6F5C
:1014A000BEDE68629EC0FF3F0FA0C8F1FF3E08E0AD
:1014B0009F66799F7BFF1FDBDF7F6FDF9FFFFFFF53
:1014C000DBDBDF9F7FFFF7FFFFFFFFFFFFFFFFFB80
:1014D000F3F78F3F7F7F7F7F7FFFFFFFFFFFFDFFE2
:1014E000FFFF3F83FCFFFF7F7FBFDFCF9F7FFFFFBB
:1014F000FFFFFFFFFFFF03F02FFE04738CB762DCDA
:101500003E7FFFFFFF9EBEBE3E7E7F7F7FFF9FEF41
:10151000E7F4FAFFFDFCE6E9E7E3637636BBD1ECDE
:10152000AD58CF67B7FB1DCF745FEBA5AFD7DBDA44
:10153000D9EBEBEFFDF5F5FFFBFCFFFFFFFFFFFF36
:101540007F7F7F3F3FBFBFBFCF5768633F3FFFFFF6
:10155000FFFFFFFFFEFEFEFFFFFEBFBBB3B7DF7F57
:10156000B7DF6837DFF91C4EF7B9DDFEFDE3EDF4B8
:10157000F0FFEFFFDFD8FABBB1F061E0C83DF8E55E
:10158000ECCF9EBC7DBBBAB2B7B39BDBDBDBC3DB6E
:101590009B7B99696DE9E5CCD2DCAA357556923A08
:1015A0007B7DBC3EBFBEBF1F9FFFFFFFFF7F7F3F16
:1015B000BFBFDFDFDFEFEFE7F3F7D9F9D9DCDCFC02
:1015C000DEFEFFFBFBFBF9FFFBFFFFFBFBFBFFFF6F
:1015D000FFFFFFFFF3F3E9EC3CEE3FCD762DF61B6A
:1015E00049FEC51A3D367E7FFAFEFEFDF5FDFDFD86
:1015F000FDFDFBEBFBFBFBFFD7F7F7F7EFAEED0BCA
:10160000FEFDFBF3E7CE9E3E3C3DDDFCFEFBFDFC1C
:10161000FFFFFEFCFCF8F5FDFBFFEDEBEFC6D2BDD6
:101620005D9AB429479BBA777569EEC6F6AFAFCF1E
:101630005F5F5F5F5F5FFFFFFEFFFFFFFFFFFFFF7B
:101640007FFFBFBF9FDFDFFBFBFBFBFBF3FFFF6FFA
:101650006F7F7F7F7F7FFF7F7F7F797D7F7C73EFD1
:10166000FCD9B3B7625E7CE8E8D0F0F1E0E1E3E1F9
:10167000E3C3C3C3C3C3C3C3C3E3E3E3E3E3E3F32A
:10168000EFD7D3D3D5A5A6AF6CDF9F3F3F3F3F3FFA
:101690003F7F7F7F7F3F3F7F3FBFDFDFDFFFEFF792
:1016A000F655F76F6FEE7C99E7320214AC9A32E987
:1016B000D935F5F5F5B1EBEA6A5AD2D2B7B5A56DD1
:1016C0006FDA9F376FDF3FFFFFFFFFFFFFFFFBFB7F
:1016D000F3DF9F3F7F7F7F7FFF7FFFFEFFFFFDFFE9
:1016E000FFFFFFFFFAF7FDE5F7DC7F9BCFF6FBFD81
:1016F000FEFF7F3FBFDFCF1F7FFFFFFFFFFFFF7FAB
:101700003FDF2F93590F0677FBF9FDFE3F7F7C7C6F
:10171000FD7CFCFEFFFEBEBFCBECF6FFFBC9DBCFC2
:10172000C6EDEC7A3389F45F3F8ACD67BBDFE9779A
:101730008FFF9CD3C9FE7F7D7DF3B7B7E4FDDBDB74
:10174000F3FFEFF7FBFDFEFFFFFFFFFFFFFFFFFFD4
:10175000FFFFFFFFFEFEFEFEFFF6BFBBB3F7FFFF7E
:10176000FBFFFE7FBF5F77BF43E0FF7F1FC7F339FB
:10177000CDE673DD7DB793DFDEEDB8AEE77374665B
:10178000E7CBCCB172C793DA3E3DFBF3F7E56F6E62
:101790006E661E0E66B677D79797C7937B4BC5CDFF
:1017A0007574FACBCBEDEDF5F5F6FEFBFBFF7D7D19
:1017B000FDFFFEFEFEFFFFFF7F7F7FBFBFBFDFDFBE
:1017C000DFEFEFEFF7F7F7FBFBFBFBEDFDFDFFDFD7
:1017D000EFDFEFF3F3F2E9EC3C7E7F7F7FFFDF7713
:1017E0005FA55BAD76B39DC6283FB318777BFBFD45
:1017F0007C7AEBEBEBFBFBFFF7D7F7F7F7EFAFAF3D
:10180000EE5E5DDDBABBAF7BFBF7EEDEBD7E7A7BC5
:101810007BF3F7F7F7FAFDFAF9E9FAD5DFFFDE9C7B
:10182000BDB85AA5B5352956B64E2E6EDCB6AE5BA0
:10183000FB2B6D7D7DDEF6BEFBFFFFFFFEFFFFFF96
:10184000FFFFBFBF9FDFDFF3FBFFFBF3F7F66F6F19
:101850006F7F7F7F7F7FFE7F7F7F7F7F7F6EFDFE3D
:101860000BCCF37A7DC873E904F19F7AF4ECEAD0EB
:10187000D1E1A2A2C6C5C5C5C58F8B8B838B8383DF
:10188000C78FC7C7C64767B8AF6F67CBC9DC93A41C
:101890007FDFBF3F7F7F7FFDFFFFFFFFFFFFFFFF7A
:1018A000FF7F7FBFBFDDE3EFDEDEDC5814EDC93B19
:1018B000D2D3D5A5AA6A5ED617AE2B5FD7BF7F5706
:1018C000BBD8DBDFFFFFFFFFFFFFFFFFFFFFFBFBDF
:1018D000F3F78F3F7FFF5F7F7FFFFFFFFFFFFDEF8E
:1018E000FFFBEFFFFBFFF7FFFFFFFFFBFFFFFFF734
:1018F000FFFFFFFFFFFFFFFFF7FBDFEFDFFFFFFF54
:10190000FFFFFFFFFFFFFFBFDF3FD76B37168BEDFA
:10191000F7B29BCDEDF6D6EBEFF7F3FDF6FBFBFD53
:10192000FDFEFFFFFEFFFFFFFFFFEFF7F7CBE9F143
:101930003AF77B7B372F73DB05BDCD16E9FEF6FA50
:101940004F7D93FFF7FFFF3FBF3F7F7F7F3FFFFF4D
:10195000FFFFFFFFFEFEFEFFF7FEBB3BB3F7EFFF0F
:10196000FFFFFEFFFFFFFFFFFFFFFFFFFFFFFFFF88
:10197000FF7FFFFFFFFFFFFFFFBFFF6F7F7EBFD92E
:10198000DDEFF7F7FBFDFDFD7E9F6F0FE7F7777348
:10199000333BDBABD979391D89890D77E767D39B59
:1019A000BDBF5F50F4EC6C79617171737F39BF3EDC
:1019B0003F5F5ECEA7A7B9B0D8DDD6D3E9E6595DC3
:1019C0007E7B7BBBBBB3BBADBBDFDBDBDBDFFFFF0A
:1019D000DFFFEFF3F7F7E8EC9E3E7F7F7FFFFFFF2F
:1019E000FFFFFFFFFFFFFF7FFFBFBFB7BFBFBFBF4F
:1019F000BFBF3F37D2DBF9EB6E543DABFDFFFFFFBE
:101A0000FFFFFFFFFFFF7FB9D8CDEEE477365A69BD
:101A10007B7D7DFCF6F7EEEEF1CF3CDBF7A67BD9C4
:101A2000B132C78B9A387FB9B0CBFDE69B3D3E3FC4
:101A30003D3D3D3D3DBDBEBEBE3E3E7E5E7E7F7FAA
:101A4000BFBFBFBFBFFFDFDFDFDFFFEFEFEFEF6F36
:101A50006F7F7FFF7F7FFF7F7F7F7F7F7F7E7C7DAC
:101A6000FD7D7CFD7DFD3BDBCEEEE77BF7F53DDBD1
:101A7000EA37198DC66A3412FB0DACE7F7F7F3F3BA
:101A8000FBFBFBF3E4C697939305468B09131333D3
:101A90002323635256565745656B4B5887FF7F1E6D
:101AA000DD21C33B7FFFFEFCFCFDFCFDF5FDEFEB04
:101AB000D9BD7DF5F5FBF8E2E6CFDB33D7FFFF7745
:101AC000FBDBDBDFFFFFFFFFFFFFFFFFFFFFFBFB9A
:101AD000F7F71F3F7FFB7F7F7FFFFFFFFFFFFDFFCC
:101AE000FFFFFFFFFFFFFFEFFFFFFFFFFDFBFFFF1C
:101AF000DF7DEF13FDFFFE3F7FFF0F77DF371DE632
:101B000011EF27C3ED973BADD0B7EFD28C3CDF3F51
:101B10007CFDF9F8FEFCFEBFBFBF7CFA79B6D47538
:101B2000EDFFFAFEFFFFFFFFFFFFFF7F7F3FDFFDBF
:101B3000DFCFDBDFF9F9FDFDFDFBF7E6E7EDC9DB04
:101B400093E7F7F7F7F7BFBF3F3F7F7F3F7FFFFF89
:101B5000FFFFFFFFFEFEFEFEE7D63DBBB3FFDFFF4C
:101B6000FFFFFFFFFF7FFFFFFFFFFFFFFFFF7BFF89
:101B7000FFFFFFDF4EADFB6718CEF7F0F9FBFAF978
:101B8000FDFCFCFCFCFEFE7E7E7F3C7EBDFC3D7EC3
:101B90007C7D7D7B7B7F7B7A7E7B7B7F787575759B
:101BA000F7F7F5F7F5F7F7F7F5F7F6F7F7EFEEFDD7
:101BB000EDEFEFEFEFEFEFEFFFF7F7F7F7F7F7F7EF
:101BC000F7FFF7EBEBEBE9E9D9DBDBDBDFBFFFFF8F
:101BD000DFEFFFF3F3F3ECEC3C3E7F7F7FFFFF7F13
:101BE000FFDF7FAF637BADADEE5FD5B7EA4BEB7543
:101BF00035998E2CE712DE3FC00F7FFFFFFFFFFFFE
:101C0000FFFBFBF9F5F6F6F6E7EBCBBD8DB2FEFE7A
:101C1000E0CEBF7F7FFFFFFFFFFEFEFFFF7F7FBAAB
:101C2000467676767674747C6AEA1AFAFAFAFAFAE2
:101C3000FAF6F6F6F66654D434F4B5B5ADA9EBEB86
:101C40006BF3D3D7D7D7D7D7D7D7D7D7D7D7EF6FC8
:101C50006F5F77FF7F7FFF7F7F7F7F7F7E7ECEF30B
:101C6000797CFFFE1FE7FB0D96EB35DBFC65FA0286
:101C7000FDFBF7EC53A4AF60C33F668D0B132F67DA
:101C8000B7731B7BF9FDFDFDFDFCFCFEFCFEFEFCBD
:101C9000F9F9F1F1F1F1E5E1E1E1E0C0C0C1C1E143
:101CA000A3E1E3F3E2E3CBA365E6E362666262628B
:101CB000676D65E4B6F3D9ECE7FBFCFFFFFFBF7F80
:101CC0009BD8D95FFF7F7FFFFFFFFFFFFFFFFBFB7D
:101CD000F7F70F3FFFFFFF7F7FFFFFFFFFFFFFFFD4
:101CE000FFFFFFFFFFFFFFFFFFFFFFFFFFFFFFFF04
:101CF000F31DF6FB1DCEF73BCF773B8DE63B0D8703
:101D0000EFB7F30CF7FB07E39CBA7E7EFDF9FAF818
:101D1000F9FABEBC7E7F7F797CFE72352D767B6DB5
:101D20005A6F76717F7E7F7F7F7F7F7F7F3F7FCF00
:101D3000DF97DFFBB9B9BDFDDDDB6F6FEDEDF7F7C9
:101D4000F7F7F7F7F7F7FBFBFBFBFBFBFBFBFFFFF3
:101D5000FFFFFFFFFEFEFEFEEFFEBEBBB3F7DFFFA1
:101D6000FFFFFFFFFFFFFFFFFFFFFFFFFFFF7FFF03
:101D7000FF7FC17C02FF90C0FFF1F2FAFBFDFCFC8B
:101D8000FEFEFEFFFEFFFEFEFEFCFCFEFEFE7D7F75
:101D90007F7F7F7F3F3EBFBF3FBEBF3F7F5FDFDFB5
:101DA000DFDF6F6FEFEFEFEFEFEFEFEFEFE7E7F36F
:101DB000737371757575757434B6B6B7A7A7A7A791
:101DC000A7B7D3D3D3DBDBD9D9DDCDCDDCDCFFFFA7
:101DD000DFFFFFF7F3F7E8EE3E7E7F7F7FFFFFFF39
:101DE000FFFFFFFFFBFFF7FFCFEF6FAFFF7797CB53
:101DF000E533996E37C9E71F7FFFFFFFFFF7F3F168
:101E0000F5F5F406F2FA1AC474FEFEFEFEFEFE7F3D
:101E10003F5E415F5F5B5E5C5F5D5C5B575A7EBEB1
:101E2000B47DECDB3AFDF5F5F4F4F6F6F6F6EEEEFD
:101E3000EEEBEFBB5FD7D7BFAF7FFFBFFFFFFEFE6D
:101E40007EFFBEDE9EDEDEF6F6FAFEFAF3FFEF6FF1
:101E50006F5F7F7F6F7FFF7F7F7F7F7F7F7E7DFDD7
:101E60007DFC7C7D7D7979FBCFB06FD39EC1BF7F38
:101E7000C0BE033CF3C0907FE08D7BF72BBBCBAFA4
:101E800027B7735AEBFD0CF9F9F1E5E1E4C0C1C3E2
:101E9000C38286868484848C8D8D8DC9C9C9C8EC23
:101EA000D2ECF7F3F4E6E6CCCD8D0D8989898B97DA
:101EB00097979B9B96D252466667747BFF7FFFFF86
:101EC000FBD9DBDFFFFFFFFFFFFFFFFFFFFFFBFB98
:101ED000F7F78F3FFFFFFF7F7FFFFFFFFFFFFFFF52
:101EE000FFFFFFFFFFFFFFFFFFFBFFFFFFFF7FA7DE
:101EF000B75B6DB7D97CB69B4FA3D16FB75C0EF7BC
:101F00003369DC813C72073D5C5C3C3D3F3F3E7E7B
:101F1000FFFEEFCFCFEFE7EFEFC6FFC0E9E4EDF94B
:101F2000EDEDEEEFF7F7F7F7F7F7FBFBFBFBFBFB4E
:101F3000BDBDBD9DDD9EDE4FAFCE6F6777F7FF7FE6
:101F40007F7F3F3FBF9F9F9F8FCFCFCFCFE7FFFFC9
:101F5000FFFFFFFFFEFEFEFFEFDEBF3BF39F5FBF15
:101F6000BFEFB7BFBFF7DFEF6F379BCB6DB6DBE9D6
:101F7000349A4B25C663994C3389E633CDE7F6F99D
:101F8000F9FDFCFEFEFEFFFFFFFFFFFFFFFFFFFF6F
:101F9000FF7F7F7F3F3FDFDF9F6F2FAFCF2F6FC769
:101FA000C7DFDB9BBBBB3B7B9B3DBDBDFDBDBD3DE3
:101FB0007C7C7D7D3C9CBCBEBEBE9E9EDEDEDED6B5
:101FC000D3DB5BEB6BEBEBEBEBEBEBEBA3B3FFFFF1
:101FD000DFEFFFF7F3F7E8EE3E7E7F7B7EFDEF3E1F
:101FE000DEE67A9CE68B79FEC3397CC09F3F41FCDC
:101FF0008F017C0728CE01FC8700030C33CF3F7F85
:10200000FFFFFFE7E7FB6B3333DB6BA3B1BDBDB273
:10201000BCBEBBBBBFBFBEBDBBBBB72F7F7EFFFD82
:10202000FDFBF7776FDF3F7F7FFEFFFDFCFCFDFBD5
:10203000FBFBFBFBFBFBF6D7B674EFEBBAD6B76F37
:10204000FFFFBFDFBFDFDFF7FFF7FBFFF1FFCF6F62
:102050004F5F7F7F7F7FFF7F7F7F7F7F7F7E7F7C64
:10206000FBF7FC69737577CECDDBD7D68CADFA5212
:10207000F5A4ABA6E4495B5491B2A464684851D678
:1020800099B3AFAF7F1C6C76E348D68484A48C8868
:10209000080808081818181010989890999B9CC365
:1020A000FEDACAEEF6F3F4F7F7E6CCCECCCC0DCDE3
:1020B000CDCDCDCDC5D5C5CBCB686B6B67F7F3F870
:1020C000FFD9DFDFFFFFFFFFFFFFFFFFFFFF000084
:1020D0000000000000000000000000000000000000
:1020E00000000000000000000000000000000000F0
:1020F00000000000000000000000000000000000E0
:1021000000000000000000006060F000000000001F
:1021100000808080010000220200000100000220F7
:102120000202020204000408000000000000000097
:10213000000000000000000000000000000000009F
:10214000000000000000000000000000000080808F
:10215000000000000000000000000000000000007F
:10216000000000000000000000000000000000006F
:1021700000000000000000000000200040400000BF
:102180000000E018E8E464746F33C3330BE3E985BF
:102190000301000000002060A0F040C04020E0F0FB
:1021A00030180000000000000000000000000000E7
:1021B000000000000000000000000000000000001F
:1021C000000000000000000000000000000000000F
:1021D00001200101000001000001000000000000DA
:1021E00000000000000010000000000000002000BF
:1021F0000000000000000010203000A8B818E8A07F
:10220000A0A4E2A3AEFE0D0505FAF80A0999676CD1
:1022100093BEBC3BB8E9BB20939CB7974447677F0C
:1022200000000000000000000400000000000103A6
:102230000004000800000010000010000000000072
:10224000000000010001000020000000000000006C
:10225000000040000000000000004000400000803E
:1022600000204000000080008000208000200080CE
:1022700000900080000000000010004101010002F9
:1022800007040F0C0F0F0E0E0E0F0E0E0E0E0E0E7D
:102290000F0E0C0E0E0F8E0E0D0F8E0E8F00008087
:1022A0000040000000000000000010004090C090BE
:1022B000109090109040409010809040202000108E
:1022C00000200110109040002010104040900000AD
:1022D00000000000000000000000000000000000FE
:1022E00000000000000000000000000000000000EE
:1022F00000000000000000000000000000000000DE
:1023000000000000000000206060F00000000000FD
:102310000080808000000000000001000202000038
:102320000100030002020202020004040000000097
:10233000000000000000000000000000000000009D
:10234000000000000000000000000000000000800D
:10235000800000800000000000000000000000007D
:10236000000000000000000000000000000000006D
:10237000000000000000000000000000000000005D
:102380000000E018E8E464746F33C3330BE3F985AD
:102390000301000000002060A0F040C04020E0F0F9
:1023A00030180800000000000000000000000000DD
:1023B000000000000000000000000000000000001D
:1023C000000000000000000000000000000000000D
:1023D00000000000000100010000010000000020DA
:1023E00000000000000000000000000000000000ED
:1023F000000000200000000020300028B818E8A0ED
:10240000A0A0E323AEFA8D0505FAF90C0999676CD3
:1024100093BEFC3AB8E9BB24939CB7D74447677F87
:1024200000000000000000000000000000000000AC
:102430000000000102000C48000000001000000035
:10244000000000000000000000010000000000008B
:1024500000000000000000000000000000C00000BC
:1024600000100020002000002000400000000000BC
:1024700080000040001050004080000101814002B7
:1024800007040F0C8F0F0E0E0E0B0E0F0E0E0E0EFE
:102490000F0E0C8E0E0F0E0E8D0F0E0E0F00800005
:1024A000008200400000100000100000000010003A
:1024B00010100000909090909090909090001000DC
:1024C00010000010002020001000904000200000AC
:1024D00000000000000000000000000000000000FC
:1024E00000000000000000000000000000000000EC
:1024F00000000000000000000000000000000000DC
:1025000000000000000000206060F00000000000FB
:1025100000808080000000000000000040010001F9
:10252000010202100001010202220202020204045E
:10253000040800000000000000000000000000008F
:10254000000000000000000000000000000000008B
:10255000000000808000000080800000000000007B
:10256000000000000000000000000000000000006B
:10257000000000000000000000000000000000005B
:102580000000E018E8E464746F33C3330BE3E985BB
:102590000301000000002060A1F150C04020E0F0E5
:1025A00030180800000000000000000000000000DB
:1025B000000000000000000000000000000000001B
:1025C000000000000000000000000000000000000B
:1025D0002040000000000000000101210100000077
:1025E000000000002000000000000000800000004B
:1025F000001000000000000020300028B818E8A0FB
:10260000A0A4A3A3AEFA8D0505FAF90A0999676C8F
:1026100093BEFC3BB0E9BB20939C97D75447677FA0
:10262000000000000000000000000000000010009A
:1026300000040400000000000102040848800000BB
:10264000101000000020000000000000000000004A
:102650000000000000080000000000400001000031
:1026600040000000000000002000200000002000CA
:102670000000100000000000400080014111000235
:10268000070C0F0C0F0F0E0E0E0F0E0F0E0E0E0E70
:102690000F0E0C0E0E0F0E0E0D0F0E0E0F01800002
:1026A000000000000040000000008010000000005A
:1026B000000000001000909090001090909010008A
:1026C00010100010100010001000C09010900000BA
:1026D00000000000000000000000000000000000FA
:1026E00000000000000000000000000000000000EA
:1026F00000000000000000000000000000000000DA
:1027000000000000000000206060F00000000000F9
:102710000080808000000000000000000000000039
:10272000004001000100020010000000020202024D
:102730000202000404080000000000000000000085
:102740000000000000000000000000000000000089
:102750000000000000000000800000000080000079
:102760000000000000000000000000000000000069
:102770000000000000000000000000000000000059
:102780000000E018E8E464746F33C3330BE3E985B9
:102790000301000000002060A0F050C04120E0F0E4
:1027A00030180000000000000000000000000000E1
:1027B0000000000000000000000000000000000019
:1027C00000000000000000000000000000000210F7
:1027D0000000000020200000000000000000002099
:1027E00001010000020000002000000000000000C5
:1027F000000000000000000020300028B818E8A009
:10280000A0A0E323AEFA8D0505FAF90A0999672C11
:10281000B3BEFC3AB0E9BB20939CB7D75447677F5F
:102820000000000000000000000000000000800028
:102830000000002000004400000000000003000829
:102840004000100000100000000000002000000008
:1028500008000000004000080000000000800000A8
:1028600000000001000080801000802000000000B7
:102870000010000010800090008000810111000213
:1028800047040F0C0F0F0E0E0E0F0E0E0E0E0E0E37
:102890000F0E0C0E0E8F8E0E8D0F0E0E0F00000001
:1028A00000000000200000000000000000001000F8
:1028B0009090400000101000809040909090101078
:1028C00010909040C0109040000020001040000088
:1028D00000000000400000000000000001000000B7
:1028E00000000000000000000000000000000000E8
:1028F00000000000000000000000000000000000D8
:1029000000000000000000206060F00000000000F7
:102910000080808000000000000000000000000037
:102920000000000000000041000102020000000160
:102930000000022202020204040408000000000059
:102940000000000000000000000000000000000087
:102950000000000000000000000000000080800077
:102960000080800000000000000000000000000067
:102970000000000000000000000000000000000057
:102980000000E018E8E464746F33C3330BE3E985B7
:102990000301000000002060A0F050C04020E0F0E3
:1029A00031180800000000000000000000000000D6
:1029B0000000000000000000000000000000000017
:1029C0000000000000000000000000000000000007
:1029D0000000000210000000002040000000000085
:1029E00000000001200100000002000000200000A3
:1029F000000000000000000020300028B818E8A007
:102A0000A0A4A3A3AEFE8D0505FAF80E0999672CC4
:102A1000B1B6FC3BB0E9BB24939CB7975445677FA4
:102A20000000000040000000000000000000000066
:102A30000000000000000010000000040000000082
:102A40000001020004480000000010000000000027
:102A500000080000000000004000400000080800DE
:102A60000000000040002000010000000000801075
:102A700000008000000000002000000101010002B1
:102A800007040F0C0F0F0E0E0E0F0E0E0E0E0E0E75
:102A90000F0E0C0E0E8F0E0E8D0F0E0E0F8100807E
:102AA00000000080000080004000000000000000E6
:102AB0000000004010901010004040001010001066
:102AC00000101010909010901000100010100000D6
:102AD00000000000000000000000000000000000F6
:102AE00000000000000000000000000000000000E6
:102AF00000000000000000000000000000000000D6
:102B000000000000000000006060F0000000000015
:102B10000080808000000000000000000000000035
:102B20000000000000000000000000400001010261
:102B30000200000010000202020202000004040869
:102B40000000000000000000000000000000000085
:102B50000000000000000000000000000000000075
:102B600000008000000000000000000000000000E5
:102B70000000000000000000000000000000000055
:102B80000000E018E8E464746F33C3330BE3F985A5
:102B90000301000000002060A0F040C04020E0F0F1
:102BA00030180800000000000000000000000000D5
:102BB0000000000000000000000000000000000015
:102BC00000000000000000000000000000000142C2
:102BD000800000000000000012100000000000440F
:102BE000040000000000000021000100000000209F
:102BF000000020000000000020300028B818E8A0E5
:102C0000A0A0A3A3AEFA8D0505FAF90E0999672CC9
:102C1000B3B6BC3BB0E9BB20939CB7D75447677FA2
:102C20000000000000000000004000000000000064
:102C30000000000000000000800010000000000004
:102C4000440000000000010200084880000000026B
:102C5000000080000000004000080000002808007C
:102C60000000004000000010000000900000000084
:102C7000002000009000408000400001012100027F
:102C8000070C0F0C0F0F0E0E0E0F0E0E0E0E0E0E6B
:102C90000F0E0C0E0E0F8E0E8D8F8E8E0F8100007C
:102CA0008000000000000080000000000000000024
:102CB00040000020000000200010001010004040E4
:102CC000009090C090909010909010101010000004
:102CD00000000000000000000000000000000000F4
:102CE00000000000000000000000000000000000E4
:102CF00000000000000000000000000000000000D4
:102D000000000000000000006060F0000000000013
:102D10000080808000000000000000000000000033
:102D200000000000000000000000000000000000A3
:102D30004000010002021001000102020202000232
:102D4000040404040800000000000000000010005B
:102D50006080800000000000000000000000000013
:102D60000000000000008080000080800000000063
:102D70000000000000000000000000000000000053
:102D80000000E018E8E464746F23C3330BE3F985B3
:102D90000301000000002060A0F040C04020E0F0EF
:102DA00030180800000000000001000100000000D1
:102DB0000000000000000000000000000000000013
:102DC0000000000000000000000000000000000003
:102DD000002000014280000000000000028010007E
:102DE0000000002040000000000000000021210041
:102DF000000000000000000020300028B818E8A003
:102E0000A0A0E3A3AEFA8D0505FAF80A0999672C8C
:102E100093B6FC3AB0E9BB2093BCB7974457677FA1
:102E200000000000000000000000000000000000A2
:102E30000000000000000000000000000000000092
:102E40000020000004000000000000030204000055
:102E50000000000000000000000000004000000032
:102E60004000006000000000200000200000200062
:102E7000004000001080100000002001018140028D
:102E800007C40F0C0F0F0E0E0E0F0E0F0E0E0E0EB0
:102E90000F0E0C0E0E0F0E8E0D8F0E0E0F804000BB
:102EA0008000000000001080000000000000900082
:102EB0000000008010400000400090204090909062
:102EC000901040404000100090909010409000DA28
:102ED0000281FFD9F1DB20A4A62EAF00A0C000A183
:102EE000C800AED580A81FD300408D14200000007C
:102EF00000000000000000000000000000000000D2
:102F000000000000000000000000000000000000C1
:102F1000000000107060E0E0C0C0808080899FFEEB
:102F2000FEFCF8F8F8F0F0FEFF7F7EFFFFFCFBFBF5
:102F3000FFFFFFF7F7F9FCFEFEFEFEFEFEFEFCF6CD
:102F4000F4FCF878381808080800000000000000B9
:102F50000000000000000000000000000000000071
:102F60000000000000000000000000000000000061
:102F70000000000000000000000000000000000051
:102F80000000000000000000000000000000000041
:102F9000040C0C0C0C0C180CF8F9B9FBFBFFFFAF80
:102FA000F7FBCFFFFF9FA7BFBECFDFFFFFFFE7F31A
:102FB000C7C79F9F9FFFF7DFDFFBFBB7F7FFFFFF51
:102FC000FFFFFEEE6E6E0E0606020300000001001B
:102FD00000000000000000000000000000000000F1
:102FE00000000000000000000000000000000000E1
:102FF00000000000000000000000000000000000D1
:1030000000000000000000000000000000000000C0
:10301000000000000000000000000002038303071E
:10302000074747475F1E0E1E1F3F3F7FFEFEFF7F85
:103030007F3F1F1E1E1E4F0F0F0F0F0383830202C1
:103040000000000000000000000000000000000080
:103050000000000000000000000000000000000070
:103060000000000000000000000000000000000060
:103070000000000000000000000000000000000050
:103080000000000000000000000000000000000040
:103090000000000080C0E8F4F2F3E18101FCFCF0E4
:1030A000E080B8F8FCFCFCF9F3F1F3E2E0E0E0E2E8
:1030B000723119090181C0E0F0F0E0F0F0F0800118
:1030C000E1F9FAF2F4ECC08000000000000000001A
:1030D00000000000000000000000000000000000F0
:1030E0000000000000000000000000000000FBFBEA
:1030F000F7F70F3F7FFFFF7F7FFFFFFFFFFFFFFF20
:10310000FFFFFFFFFFFFFFFFFFFFFFFFFFFFFFFFCF
:10311000FF6FBF9FDF4BCD769BCC7EFF1F8F7FC79E
:10312000938F5FFFB7B70DAFCFCF4FEF5F575B5BAD
:103130005BF3B3AF4BDBA7CF1F7FFF3FFFEF9F33A7
:1031400067CF9E3967DEBF5FFFBFFFFF7F3FDFDFD7
:10315000DF8FDBDBFBFBFDFDFDFBF7F7E5EDCB9B3D
:10316000B7F7F7F7F7FF9FBF3F3F7F7F3FBFFFFFF7
:10317000FFFFFFFEFEFEFEFFE7DE3FBBB3FFEFFFFC
:10318000FFFFFFFFFFFFFFFFFFFFFFFFFFFFFFFF4F
:10319000FFFFFEFEFAE3F6EDFFF6F4ECEBFADBDA06
:1031A0007A2599D19933BF7F3F7E7F7E5FDCDCEC4F
:1031B0007E7E7F3FBF5EA9E4676AE9ECEA6999DB3E
:1031C000FFFEFDFBFEFEFDFDFEFAEBE9C90B4BAB7E
:1031D000AB3B67D8BF6FCF8FFFEEEFEFFFFFDFDFB7
:1031E000FFEFF7FBFBFBFBFDFFFFFFFBFF7BFFBFE1
:1031F000DFEFEBF7F3F7E0EC3E7E7F7F7FFFFFFF33
:10320000FFFFFFFFFFFFFFFFFFFFFFFFFFFF7F3F0E
:10321000BFDFEFECF7FBF7F6CAEAB32B7D7DBEFE0E
:10322000CEC7E6F2FAF9F5F2FDFAF8FFFB79727211
:1032300036B7B7BBD89E1F5F9CCCCFEFEEE6F7F753
:10324000F3C3915DEDBDA1B9DDEDF1F9FFFF620FB3
:10325000FDFFB5EACD972E6DC73FDFFFFFFFFFFFF4
:10326000FF7FBFDF9FDFCFF7FFFFFFFBF7FFCF6FD2
:103270006F7F7F7F6D7FFF7F7F7F7FFFBFBCBCFD48
:10328000DDDCDCFDEDFDFBF7F77B9BEBF9FCFEFFE6
:103290007F1F1FCFEF27B3B96DFC9456D75E5E4FEB
:1032A0004F5757B33BBB397D7D051E3A9B9B5B5BFC
:1032B0005B5B5B4B4B6B242C2B1F1F3F3F3FBFBF08
:1032C0009F4FE7A667A767E7277767B79BEC56D8B6
:1032D000EFB7E3F7DCCFE8F1D8FEFFFEFFFFFFFF1B
:1032E000FBD9DBDF7FFFFFFFFFFFFFFFFFFF0000DA
:1032F00000000000000000000000000000000000CE
:1033000000000000000000000000000000000000BD
:1033100000000000000000000000000000000000AD
:1033200000000000000000206060F00000010001CB
:1033300000828280010101020202020202020004F4
:103340000400000000000000000000000000000079
:10335000000000000000000000000000000000006D
:10336000000000000000000000000000000000005D
:10337000000000000000000000000000000000004D
:10338000000000000000000000000000000000003D
:10339000000000000000000000000000000000002D
:1033A0000000E018E8E464746F23C3330BE3F9858D
:1033B0000301000000002060A0F040C04020E0F0C9
:1033C00030180800000000000000000000000000AD
:1033D00000000000000000000000000000000000ED
:1033E00000000000000000000000002000000000BD
:1033F00000000000200000000000000000000000AD
:1034000000100000000000000000000000000000AC
:103410000000000000000000203000A8B818E8A05C
:10342000A0A4E323AEFA8D0505FAF9080999672EE1
:10343000B1BEFC3BB0E9BB20939CB7974447677F84
:1034400000000000000000000102000048800000B1
:10345000001000000000000000000000000000005C
:10346000000000010000000000000000000000005B
:10347000000000000000000000800000004000008C
:10348000400000400000000040002020200080009C
:103490000000000010008000008000018101000297
:1034A000078C0F0C0F0F0E0E0E0B0E0F0E0E0E0EC6
:1034B0000F0E8C0E0E0F8E0E0D0F0E0E0F800000D5
:1034C000000000000000000010004090909090105C
:1034D00040001000002000100020001000100030FC
:1034E0004040904010004010901030109090167C9A
:1034F0003A003B003C003D003E003F0040004100E0
:10350000420043004400450000004600A80035008A
:103510001E001F002000210022002300240025009F
:10352000260027002D002E0000002A0049002B0055
:1035300014001A000800150017001C0018000C00E9
:10354000120013002F003000000031004C00390041
:1035500004001600070009000A000B000D000E0011
:103560000F00330034000000000028004B00E10091
:1035700000001D001B0006001900050011001000CE
:10358000360037003800E500000052004E00E00031
:10359000E300E2000000000000002C00000000003A
:1035A0000000E60021525000000051004F000100D1
:1035B0000100010001000100010001000100010003
:1035C00001000100010001000000010001000100F4
:1035D00001000100010001000100010001000100E3
:1035E00001000100010001000000010001000100D4
:1035F000010001000100007C010001000100010048
:10360000010001000100010000000100010039007B
:1036100001000100010001000100010001000100A2
:10362000010001000100000000000100B1000100E4
:103630000000010001000100010001000100010083
:10364000010001000100010000000100B2000100C2
:103650000100010000000000000001000000000067
:103660000000E600215201000000010001000000FE
:10367000000000000000000000000000000000004A
:10368000000000000000000000000000000000003A
:1036900000007E0F00D4FFFFFFC70000007800008D
:1036A0000000000000002A2B28000000000000009D
:1036B00000000000000000000029000000002C1E97
:1036C0003420212224342627252E362D3738271E54
:1036D0001F202122232425263333362E37381F047A
:1036E00005060708090A0B0C0D0E0F101112131412
:1036F00015161718191A1B1C1D2F3130232D3504D0
:1037000005060708090A0B0C0D0E0F1011121314F1
:1037100015161718191A1B1C1D2F3130354C0501B1
:103720000980A101850319012AB700150126B700F8
:10373000950175108100C0050C0901A101850419CE
:10374000012AA002150126A002950175108100C072
:1037500005010906A101050719E029E71500250162
:103760009508750181029501750881030507190007
:1037700029FF150026FF0095067508810005081928
:10378000012905950575019102950175039103C005
:103790000C034C0043004B003700350000000C03C5
:1037A0004C00790073006F0031000000040309042D
:1037B00009023B00020100A0FA0904000001030114
:1037C00001000921010100012240000705810308D1
:1037D00000010904010001030000000921010100AA
:1037E00001223200070583030800011201100100C5
:1037F0000000085678636102000102000100AF007A
:10380000AE0011241FBECFE5D8E0DEBFCDBF11E072
:10381000A0E6B0E0ECEEFDE602C005900D92AE3001
:10382000B107D9F725E0AEE0B1E001C01D92A532A5
:10383000B207E1F70E948E230C94F4360C9400003A
:10384000A82FB92F80E090E041E050EA609530E089
:1038500009C02D9182279795879510F08427952789
:10386000305EC8F36F5FA8F30895EADF8D939D93F0
:103870000895CF93CFB7CF93DF93C395839BE9F799
:10388000839B10C0839B0EC0839B0CC0839B0AC08C
:10389000839B08C0839B06C0C091DA04C395C09384
:1038A000DA048EC06F93C0910005DD27CD5FDA4F3B
:1038B0002F9365E5839B03C02F916F91E1CF0F9309
:1038C0001F934F9320E040E15F9300B30C7003FB24
:1038D00027F93F9350E03BE039C01C7040642F77DC
:1038E000012F5F5F1EC0406810B31C702F775250CD
:1038F0001FC0406400B32F770C70D1F15F5F00C030
:1039000023C0406210B32F771C7091F15F5F00C03D
:1039100025C00C701027515012F45D5F000011504B
:1039200027952C3F10B3C8F61C700127015027952E
:103930002C3FC8F64227499300B30C7010274F73F1
:10394000115027952C3FA8F64695469510B31C704C
:1039500079F00127015027952C3F98F66B5A60F3B8
:10396000315000B3B0F600C010E81ABF00271CC0E9
:103970003B503195C31BD04010E81ABF0881033C6F
:1039800021F10B3411F12091FE041981110F121352
:10399000EDCF4A81441F093679F10D3211F0013E15
:1039A00029F74F7009F0042F0093D9043F915F91DC
:1039B0004F911F910F912F916F91CAB7C7FD5DCFA6
:1039C000DF91CF91CFBFCF9118952091D9042223B9
:1039D00069F310910105112309F049C034300AF44C
:1039E00048C0309301052093FF04109100053BE08F
:1039F000311B309300053DC0009101050130BCF53D
:103A00000AE54F7049F43091A70034FD33C00093AC
:103A1000A700CBEDD4E032C0433059F0443091F0F0
:103A20003091E60434FD26C00093E604C7EED4E0EE
:103A300025C03091190534FD1DC000931905CAE158
:103A4000D5E01CC03091F20434FD14C00093F204A0
:103A5000C3EFD4E013C0052710E000C0000002BB94
:103A60001AC0052710E0221F1DC010E021C04AE542
:103A700002C032ED432FC4E1D0E032E011B31C604C
:103A8000939A02B311BB5CE020E865E320FF0527B1
:103A900002BB279517951C3FF0F66695B8F7B1F76E
:103AA00020FF052702BB279517951C3FD0F62795C9
:103AB000179517FF052700001C3F02BBB0F62991A0
:103AC0003A9519F7037F10910205110FC651D040A6
:103AD00002BB11F01093FE0410E81ABF086011B386
:103AE000137F402F437F54E05A95F1F702BB11BB7F
:103AF00042BB5CCF9C013A9521153F4130F5BC019A
:103B000066277270AC01442754709C0122273870DC
:103B100094FF0FC090FF02C080E101C080E0672BDE
:103B200009F08062452B09F08064232B79F08068CE
:103B30000895892F8170672B09F08260452B09F069
:103B40008460232B19F08860089580E008950E9416
:103B500080332FEF84E39CE0215080409040E1F7D8
:103B600000C0000098E088E10FB6F894A89581BDE8
:103B70000FBE91BDFFCFEF92FF920F931F93CF9394
:103B8000DF93EC018B017C0180EEE81AF10898E0EC
:103B9000E916F10410F0209731F4CE010E947A1D4D
:103BA0000E94B63305C0CE010E947A1D0E94A13347
:103BB0008C2F0E94FA330115110549F08FE99FE01F
:103BC0000197F1F700C0000001501109F4CF8C2FCC
:103BD0000E94C03398E0E916F10410F0209731F408
:103BE000CE010E947A1D0E94AB3305C0CE010E9417
:103BF0007A1D0E949633CDB7DEB7E6E00C941A36F4
:103C0000A7E1B0E0E6E0FEE10C9401364B8B5C8B63
:103C10006D8B7E8B8F8B61111092EC0186E09E0183
:103C2000235F3F4FD901E82F1D92EA95E9F795E010
:103C3000FE017396D90101900D929A95E1F79C8946
:103C40004E895F897B897D879E876F87598B488BDB
:103C5000F901DE01179601900D928A95E1F7CE01E8
:103C600007960E94192B81113EC086E0FE0137960F
:103C7000DE01119601900D928A95E1F7FF81E885AA
:103C80006A857B856115710531F0EF3F31F481E084
:103C9000FF3F19F403C081E001C080E080FD23C034
:103CA0002091BA0130E0C9010196877099274091AF
:103CB000EB0150E08417950779F1F983EA837D835E
:103CC0006C8396E0929FD001939FB00D1124A55470
:103CD000BE4FFE01319601900D929A95E1F78093C7
:103CE000BA010E94A62A16E08091EB019091BA01D8
:103CF0008917F9F0189FC001112485549E4F0E9426
:103D0000192B8823B1F08091EB0190E00196877028
:103D100099278093EB01E8CF0E9480331092BA017B
:103D20001092EB01E4EBF1E086E0DF011D928A9551
:103D3000E9F76796E3E00C941D36AAE0B0E0E3EA09
:103D4000FEE10C94FC35FC0180819181238134815A
:103D5000232B31F09F3F31F491E08F3F19F403C0E2
:103D600091E001C090E090FD8EC47F0185E0DE010E
:103D7000169601900D928A95E1F7F70122818E81C6
:103D80009F81222349F00E947532182F682F8E815F
:103D90009F810E94E93203C00E94B632182F6E81C3
:103DA0007F81812F0E94FC288C01F701828188236A
:103DB00049F1C8019A9581159F4418F4C8019927C3
:103DC00008C00F3F110509F010F4C80102C080E0DF
:103DD00090E09C01245031092432310518F08B9772
:103DE0000E9730F5E0914801F0E0EE0FFF1FE35B26
:103DF000FE4F808191818F3F4FE79407C9F0019674
:103E000091838083F7018281013B110521F0023B00
:103E10001105A1F026C0882309F435C480918401DE
:103E200090918501019663E070E00E94CD3614C048
:103E3000013B110599F3023B1105A9F4F7018281B9
:103E4000882309F420C48091840190918501019711
:103E500097FF02C082E090E09093850180938401F7
:103E600012C4882329F18091ED018272F801E05398
:103E7000FC47E830F105E0F4E65DFF4F0C94E136D5
:103E8000882319F004C0882311F081E001C08FEF6E
:103E90000E948E340DC080E009C081E007C082E03E
:103EA00005C083E003C084E001C085E00E94AA341D
:103EB000F7018281980128513C476901882309F460
:103EC00098C017FF82C10E945B31809313019091CB
:103ED000F101913029F481FF03C089E30E94673426
:103EE0008091ED01809312011092ED011092EC018E
:103EF0008091F101823019F148F48823E1F081309A
:103F0000C9F560E070E088E193E032C0843049F1A7
:103F1000853081F560E070E08BE191E00E94BB1D8F
:103F200060E070E085E290E00E94BB1D60E070E020
:103F300088E290E01DC082EE0E94FA331BC080919F
:103F4000130180FD03C083E50E94673482EE0E9466
:103F5000FA338FE39CE90197F1F700C0000087E591
:103F600004C086EE0E94673488E10E94673402C074
:103F70000E94BB1DEFE3FCE93197F1F700C00000A0
:103F8000B8017F7780E090E00E942E328091F101AD
:103F90008230F1F028F4882371F0813081F025C05F
:103FA000843009F1853009F560E070E088E290E046
:103FB0000E94BB1D1AC082EE0E94C03316C08CE264
:103FC0000E9467348091130181FF0FC089E308C00C
:103FD00082EE0E94C0338091130180FD06C083E50C
:103FE0000E94673402C088E2FBCF80911201809367
:103FF000ED01F7E0CF16D10408F4EBC0F7018281A0
:10400000882309F423C31092F701C80190578397BE
:1040100008F011C184E090E00E94313690932601AF
:1040200080932501F801E150F047E232F10520F4D8
:10403000EE5CFF4F0C94E136809125018160ACC0AD
:10404000809126018860B4C0809125018260A4C05F
:104050008091250120C08091250188609DC08091BC
:1040600026011EC0809126018260A2C08091250198
:10407000806192C08091250180628EC0809125016F
:1040800080648AC00E94803380912501806884C04A
:1040900080912501886084607FC0809126018260C4
:1040A000816086C0809125018E7F76C08091260137
:1040B000877F7EC0809125018D7F6EC08091250114
:1040C00020C080912501877F67C0809126011EC096
:1040D000809126018D7F6CC0809125018F7E5CC010
:1040E000809125018F7D58C0809125018F7B54C020
:1040F0000E948033809125018F774EC080912501E9
:10410000877F8B7F49C0809126018D7F8E7F50C035
:104110008091250182FB222720F991E0922790FBD4
:1041200082F990FB83F938C080912601982F9095F1
:1041300091708E7F892B90FB81F93AC08091250187
:1041400086FB222720F991E0922790FB86F924C074
:104150000E9480338091250187FB222720F991E07E
:10416000922790FB87F918C061E001C060E08EE003
:1041700090E00E9437361EC08091250184FB2227E3
:1041800020F991E0922790FB84F906C080912501E7
:10419000982F909590FB80F9809325010BC080911A
:1041A000260183FB222720F991E0922790FB83F9D7
:1041B00080932601609125017091260184E090E0B2
:1041C0000E9454360E9480335EC22730310508F0C9
:1041D0001ACFF601EC5AFF4F0C94E13606E221EEBD
:1041E00041EE6AE17CE705C007E225EE45EE6BE1B2
:1041F0007CE7C7010E94683146C206E221EE40EE2C
:1042000068E17CE7F6CF07E225EE44EE69E17CE762
:10421000F0CF06E221EE42EE6CE17CE7EACF07E266
:1042200025EE46EE6DE17CE7E4CF08E221E045EEC5
:104230006EE17CE7DECF0631FCE71F0709F4F6C12B
:10424000F7018281882311F10130FCE71F07E1F0BB
:1042500003302CE7120791F001153CE71307B1F486
:104260000E9480334FEF54E38CE041505040804037
:10427000E1F700C000000E94013005C26FEF7FEF40
:1042800080E090E00E9454360E94A71DF701008153
:104290001181882349F0C8010E947532D82E682FF9
:1042A000C8010E94E93204C0C8010E94B632D82E6B
:1042B000B8018D2D0E94FC280E941A29082FC82EB3
:1042C000F7012281358132953F70D92ED2944FE08B
:1042D000D4224D2D50E04C30510508F090C1FA0128
:1042E000E55AFF4F0C94E136892F807F9F70192F7C
:1042F000882311F01295107F2223B9F0112309F4BD
:104300006AC180E2800F883010F0C11006C0909121
:10431000ED01192B1093ED0105C09091EC01192BC3
:104320001093EC010E94922A56C1802F0E94C03344
:10433000112309F464C1005E1095083010F0C1101B
:1043400006C09091ED0119231093ED0105C09091E5
:10435000EC0119231093EC010E94922A50C1492FBD
:10436000407F892F8F70403211F08295807FF1E07D
:10437000CF120AC0222321F0363008F040C108C015
:10438000353008F03CC114C0222329F0311123C17B
:104390000E94B63334C1332359F0093309F02CC1DC
:1043A0002FEF37EE43E0215030404040E1F722C18B
:1043B0000E94AB3324C1892F86958695837019F0AE
:1043C000813059F01CC1222319F0802F937002C054
:1043D00080E090E00E94363118C1222319F0802F2E
:1043E000937002C080E090E00E9411310EC1892FCD
:1043F000837009F046C0211106C1802F82958695F1
:104400008770880F880F602F6F7070E0082E02C0D1
:10441000660F771F0A94E2F704FF0BC04FE050E0ED
:1044200002C0440F551F8A95E2F79A0120953095F6
:1044300002C020E030E09695969593709230A9F0F6
:10444000F0F44091210150912201913031F0CB01E3
:10445000822B932B8423952305C0CB01842B952B92
:10446000822B932B0E944433CEC0CB01822B932B03
:10447000209121013091220182279327F3CFCB0194
:10448000EFCF222319F0892F817001C086958823F0
:1044900009F4B9C0802F829586958770880F880FA0
:1044A000602F6F7070E0082E02C0660F771F0A94AD
:1044B000E2F704FF0BC04FE050E002C0440F551F6D
:1044C0008A95E2F79A012095309502C020E030E00D
:1044D000969596959370923089F0D0F4409123018F
:1044E00050912401913031F0CB01822B932B842306
:1044F000952311C0CB01842B952B0BC0CB01822BB4
:10450000932B20912301309124018227932703C00C
:10451000CB01822B932B0E941D3375C0192F1F7066
:10452000222339F0812F0E943433802F0E94B6332A
:104530006AC00E94AB33812F0E94223364C051EFC6
:10454000851729F1581720F0E0EF8E1741F03FC092
:10455000F2EF8F1719F143EF841739F138C0222396
:1045600099F0353008F04BC0292F2F7181E090E091
:1045700002C0880F991F2A95E2F7209123013091FC
:1045800024018227932720C03630C8F5EDCF22239F
:1045900039F0892F8F710E94343331C02223C9F33F
:1045A000892F8F710E9422332AC0222359F09F71D4
:1045B00021E030E0F90102C0EE0FFF1F9A95E2F70B
:1045C000CF0102C080E090E00E941D3318C022237A
:1045D00031F03323F1F2802F0E94FA3310C03323DD
:1045E000F9F2893349F4FFEF27EE33E0F150204030
:1045F0003040E1F700C00000802F0E94C03388EFF8
:104600008D0D843010F40E945B3185E0F701DE01EE
:10461000119601900D928A95E1F709811A81C801DE
:104620000E94B632B8010E94FC282DC08091ED0195
:104630008A7A91E009F490E09093140181111FC0EF
:1046400069E28CEA91E00E94F73016C006312CE74F
:10465000120709F0F5CD80911401811112C089E291
:10466000ECEAF1E022EB31E09281891301C0128281
:1046700031962E173F07C1F70E94922A04C065E3C6
:10468000E0CF85E3EDCF2A96E8E00C9418362F9220
:104690003F92CF93DF93E101809195028F31D0F467
:1046A0002D8130E08091110190E00196B9010E94C6
:1046B000CD3680931101B90161507109681B7109F0
:1046C00077FF03C0719561957109660F771FEB81C4
:1046D000FC8119C02A8130E08091100190E00196A0
:1046E000B9010E94CD3680931001B9016150710962
:1046F000681B710977FF03C0719561957109660F99
:10470000771FE881F981E60FF71F808191810E9470
:10471000F42DDF91CF913F902F900895ACE0B0E061
:10472000E4E9F3E20C94F23584B7806884BF84B77F
:10473000806884BF0E94EB309093AB018093AA0104
:1047400080E898E290930F0180930E0185B788600E
:1047500085BF8BB780688BBF8BE48093E704809321
:104760001A058093F3048AE58093E6048093190583
:104770008093F2048B9A80E0815041F0A895AFE9D4
:10478000BFE01197F1F700C00000F6CF8B98789446
:104790008BE083BF8AEF8CBF82E089BF81E080938A
:1047A00081018898909A8998919AEFE8F1E0319781
:1047B000F1F700C0000030918101E2E8F1E090E003
:1047C000931761F080B3282F2170819B02C082E093
:1047D00001C080E0822B81939F5FF2CF08EA10E056
:1047E0003EEAE32E30E0F32ED8018D918D018F3F0C
:1047F00011F00E94E528E016F106B1F70EEA10E08C
:104800002EEBE22E20E0F22EF80181918F018F3FF6
:1048100011F00E94E528E016F106B1F78CE0E9E21C
:10482000F1E0DF01282F1D922A95E9F7E5E1F1E09B
:10483000DF011D928A95E9F780E090E00E94313611
:10484000873E9E4F09F45EC067EE7EEF80E090E009
:104850000E94543660E082E090E00E94373660E0CB
:1048600083E090E00E9437361092220110922101DD
:1048700060E074E184E090E00E94543660E086E0FD
:1048800090E00E9437366FEF87E090E00E94373665
:1048900040E050E0BA0188E090E00E94483660E0D5
:1048A0008DE090E00E94373640E050E0BA0188E1A8
:1048B00090E00E94483660E087E190E00E94373641
:1048C00040E050E0BA018CE190E00E94483660E0A0
:1048D00070E080E290E00E94543640E050E0BA017F
:1048E00088E190E00E94483640E050E0BA018FE055
:1048F00090E00E94483640E050E0BA0183E190E049
:104900000E94483682E090E00E942936809335016B
:1049100084E090E00E943136909326018093250137
:104920000E94B22CEFE3FCE93197F1F700C00000E0
:104930000E94B22C8091290180FF08C06FEF7FEFA9
:1049400080E090E00E9454360E94013083E090E0C5
:104950000E94293690E00E9444338CE090E00E944F
:10496000293690E0A0E0B0E08093F1019093F2014D
:10497000A093F301B093F4011092D80484E08093E3
:10498000F10182E08093A60180E8809383010E9478
:10499000F2346DE070E081EE9EE20E94412E892BA0
:1049A00009F043C08091A60163E070E081FD3AC048
:1049B0008EED9EE20E94412E892BB9F56DE070E0EC
:1049C0008EEC9EE20E94412E892B79F50E94653083
:1049D000DC01CB01805F984DAF4FBF4F8093D20475
:1049E0009093D304A093D404B093D504E0EAF2E00A
:1049F00080E092E0DF019C011D9221503040E1F700
:104A0000F093A104E093A0048FEF9FEF90939F0297
:104A100080939E0281E08093D7048093D604109205
:104A2000A70103C08BED9EE2C5CF80E690E0909396
:104A3000FB018093FA013FEF40E752E031504040E4
:104A40005040E1F700C00000332433948091DA0431
:104A5000882399F01092DA040E94EB309093AB0116
:104A60008093AA018091A901882371F11092A90174
:104A70000E9480330E945B3110C08091A901811196
:104A800010C08091AA019091AB010E945630069708
:104A9000D8F03092A9010E94B2348091A9018823F4
:104AA00099F03092A9010E94B2340E94B22CE9E23E
:104AB000F1E085E391E021913191232B09F004C3CA
:104AC0008E179F07C1F7C2CF0E94682E80918D027A
:104AD000882309F4F6C28091E60484FFF2C20E94A2
:104AE000B22C06E311E099E2892E91E0992ED401CF
:104AF000F801219131918D919D918227932722E494
:104B000031E02E173F0719F0892B99F322C0892B2A
:104B100001F50E94EB308C018091270190912801D2
:104B20000817190709F4EAC28FEF89838A831B8269
:104B30000E94EB308160782F9D838C8349815A815C
:104B40006B818D810E94001E109328010093270124
:104B5000D5C2712CD401AD90BD904D01F801C0803B
:104B6000D180CA24DB24C114D10441F1612CEE248C
:104B7000E394F12CC6018E219F21892BB1F06E8226
:104B80007F8221E0C5018E219F21892B09F420E03D
:104B900028870E94EB308160782F9A8789874E8121
:104BA0005F8168858A850E94001E6394EE0CFF1C5D
:104BB000F0E16F12DFCFD801AD92BC9273940E5F1B
:104BC0001F4FB6E07B12C6CF0E946530222423948B
:104BD000C0904D01D0904E010D2C000CEE08FF0846
:104BE00010916800412F50E0EFE4F1E081E090E0A7
:104BF0004817590764F0219131914901330FAA08F0
:104C0000BB08C80CD91CEA1CFB1C0196F1CFF7FEAF
:104C100003C0C12CD12C76016091490170914A01E9
:104C200080914B0190914C010E943A302B013C0144
:104C3000A0E6BAEEA70196010E9489364B015C01FD
:104C4000E8EC1E9F90011124C901330FAA0BBB0B86
:104C50009C01AD01240D351D461D571DA5E0B0E09A
:104C60000E9489369B01AC01C501B4010E949C36AB
:104C700049015A0157FD0BC0213F3105410551053E
:104C80004CF0A0EF8A2E912CA12CB12C03C0812CCA
:104C9000912C540129EC421651046104710414F161
:104CA0008091480190E0019669E170E00E94CD3664
:104CB00080934801880F991FFC01E35BFE4F11822E
:104CC0001082183110F41F5F01C018E110936800C2
:104CD0000E9465306093490170934A0180934B01B3
:104CE00090934C0132E0C316D104E104F1041CF4AA
:104CF000812C912C54016091440170914501809167
:104D00004601909147010E943A306B017C01653663
:104D100071058105910584F00E946530609344011E
:104D200070934501809346019093470180919502CD
:104D3000809343018092420110914301A09142016E
:104D4000B0E0A11BB109A70196010E94943624E6A8
:104D500030E040E050E00E946A36120F1093950256
:104D6000C12CD12C80918101C81608F058C00C2D9F
:104D700010E0E0B3E170819B02C092E001C090E0DE
:104D80008E2F892BD801AE57BE4FEC912E2F23705A
:104D900030E0482F082E000C550B24173507E9F199
:104DA000EE0FEE0FE82BEC93EF70F0E0E254FF4FC4
:104DB000C80180589E4F7C019081D7018C91890F4A
:104DC0008C9382306CF0F801E158FE4F80818F5F48
:104DD00080836AE070E08AEA0E944F3421E001C0DB
:104DE00020E0F70180818F3F64F4F801E158FE4F25
:104DF0008081815080836AE070E089EA0E944F34AC
:104E000021E0D7018C91082E000C990B62E070E034
:104E10000E94CD36F7018083D22AC394A3CFD1104C
:104E20000E9465308091D704882309F43BC180EA51
:104E300092E09093A1048093A004809184019091CA
:104E40008501009759F48EEE9EE29C878B8749E09E
:104E5000BE01655F7F4F89E690E01AC08130910501
:104E600059F48EEE90E39C878B874AE0BE01655F24
:104E70007F4F8BE790E00CC0029761F48EEE92E3D7
:104E80009C878B8748E0BE01655F7F4F8FE890E08D
:104E90000E94713080919E0290919F02892B31F483
:104EA0008091D604882309F4FDC0E5C08091D70421
:104EB0008823B1F38091A7018111F2CF0E94CC34F5
:104EC00020919E0230919F022115310549F380E027
:104ED000682E712CAA24A394B12C082E02C0AA0C0F
:104EE000BB1C0A94E2F7A50142235323452B11F47E
:104EF0008F5FEECF9091A601930175E0220F331FD3
:104F00007A95E1F790FF13C065E0369527956A958D
:104F1000E1F7220F220F220F2093A1001092A4008C
:104F2000295F2093A20083E08093A50011C08295A1
:104F3000880F80768093A100220F232F221F330B2E
:104F400031952093A400815E8093A2001092A50069
:104F500024E630E047E050E06FE970E088E70E9427
:104F60009535892B09F09CCF8091A60180FF62C006
:104F700080E2E6E8F1E0DF011D928A95E9F735E08D
:104F8000660C771C3A95E1F742ED442E40E0542E32
:104F90006EEC70E0F20181912F01DB019D91BD016A
:104FA0009301290F311DF901E056FD4F4F0190E0AB
:104FB0008A579E4FFC0107E09F01281B390BEE2406
:104FC000E39401C0EE0C2A95EAF7A401F12CDA0172
:104FD0001D91AD011E21202F2F192770C22E022EE8
:104FE000000C330BB12F01C0BB0FCA94EAF7CB2ED4
:104FF0003195219531092770332701C016952A95DF
:10500000EAF7C12A1081C12AC082F39428E0F21283
:10501000DECF015031960F3F79F636ED431630E082
:10502000530609F0B7CF04E610E020E230E046E88E
:1050300051E00DC0C30125E0880F991F2A95E1F7C3
:10504000AC0140565D4F04E610E020E230E060E441
:1050500088E70E94B535892B09F022CFA094B0943F
:1050600080919E0290919F02A822B922B0929F0245
:10507000A0929E0215CF0E9465300091D20410913B
:10508000D3042091D4043091D504DC01CB01801BE2
:10509000910BA20BB30B8F3F9F4FAF4FBF4710F445
:1050A0000E94B234211001C0D1100E94CC340E9461
:1050B0005B319091A801891721F08093A8010E948B
:1050C00065300E94A62FC2CCF89421B3939A822F08
:1050D0008C6081BB92B38CE0982792BB5FE798E32A
:1050E000A1E051509040A040E1F700C0000092B311
:1050F000892782BB21BB93987894A8CC212C68CDBA
:1051000080E008959091250192FF0DC0282F28710D
:10511000283019F4877F846006C0282F247124303A
:1051200011F48B7F886093FF0DC0282F28712831E0
:1051300019F4877E846106C0282F2471243111F46C
:105140008B7E88612091260120FF0DC0382F387199
:10515000383019F4877F816006C0382F31713130C3
:1051600011F48E7F886021FF0DC0282F287128310F
:1051700019F4877E816106C0282F2171213111F435
:105180008E7E886194FD877E08952091EB01909139
:10519000BA0156E02917A9F030E0529FF001539F61
:1051A000F00D1124E554FE4F7181761306C0708115
:1051B000781303C07281741306C02F5F3F4F2770AE
:1051C000E9CF80E0089581E00895F894E82FE29512
:1051D000EF70F0E031A9282F2F7081E090E001C03E
:1051E000880F2A95EAF7982F9095932391AB92A96F
:1051F000892B82AB789408957630C8F46031B8F486
:105200008230A8F4E72FF0E096E0899FE00DF11DD1
:10521000112484E0EE0FFF1F8A95E1F7E60FF11DE0
:10522000EE0FFF1FE251FB4C85919491089580E0B1
:1052300090E00895CF93DF938238910569F1B0F43F
:105240008133910509F477C048F48932910509F456
:1052500069C08A32910509F473C092C08533910503
:1052600009F45BC089339105B9F08AC0833E91058A
:1052700091F138F4803E9105D1F0823E910531F1F3
:105280007FC0863E9105D9F1873E9105E9F1843EC4
:10529000910509F075C028C02091250120FD5BC053
:1052A00021FD59C02091260123FD61C069C0809174
:1052B000250180FD4AC08091260180FF4CC080916D
:1052C000250184FD2AC183EE90E029C1809125014A
:1052D00082FF3EC0F4CF8091250182FD39C08091CC
:1052E000260180FD38C0EBCF8091260181FF39C0B7
:1052F0008091250184FD11C187EE90E010C180915D
:10530000250183FF2BC0F4CF8091250183FD26C0AA
:105310008091260181FD25C0EBCF8091250185FD7F
:1053200026C022C08091250185FD1EC080912601E6
:1053300083FF1DC00AC08091250186FD1BC01DC0D2
:105340008091250186FD19C015C089E390E0E7C072
:1053500082EE90E0E4C080EE90E0E1C086EE90E066
:10536000DEC084EE90E0DBC085E390E0D8C089E247
:1053700090E0D5C08AE290E0D2C081E390E0CFC057
:10538000EC01811530E4930708F04AC0811560E212
:10539000960758F08D2F8F710E948228282F2F7129
:1053A000CE0199279062922BBAC0813C910538F5C5
:1053B000883A910560F08C2F885AC82FD0E0CC0F26
:1053C000DD1FC752DF4F888199819464A8C0853A58
:1053D000910550F08C2F855AC82FD0E0CA52DF4F6C
:1053E000888190E090649BC08430910510F0CE01DC
:1053F00096C0019709F091C081E090E090C0883E8E
:10540000910550F4803E910590F78D3C910508F48C
:1054100084C0CE01906583C08115914040F77DC066
:10542000C03482E5D80708F040C0C03292E5D90701
:1054300040F08C2F8F7190E0982F8827816F906AB1
:105440006EC0C11522E5D207B0F08C2F86958695E7
:1054500020E2829FA00111248C2F837021E030E094
:10546000B90102C0660F771F8A95E2F7CB01842B42
:10547000952B9D6854C0C11530E5D30720F4CE01AB
:105480009F70906A4CC08C2F8F710E94822895E08B
:10549000D695C7959A95E1F7CF70D0E0DC2FCC2751
:1054A000D0699E01282BC9013AC0C03862E5D607F1
:1054B00038F54C2F43702C2F2F71C036D24578F41D
:1054C0002695269570E2279F9001112481E090E0B7
:1054D00002C0880F991F4A95E2F79C680EC0269576
:1054E000269580E2289F9001112481E090E002C07F
:1054F000880F991F4A95E2F79A68822B932B0FC069
:10550000CE01805C9245809740F4CE018F7199273F
:10551000982F8827806F906A02C080E090E0DF912A
:10552000CF9108959091ED018091EC01892B8093AA
:10553000AC01E091FA01F091FB01309731F002806B
:10554000F381E02D8CEA91E0099508958091EB01BB
:105550009091BA01891719F08F5F8770FBCF08957A
:105560000F931F93CF93DF938091B90182958F7032
:1055700009F05AC08091B601882309F455C0809182
:10558000EB011091BA016091B4017091B501C09125
:10559000B701D091B80191E06F3F09F090E0292F59
:1055A00006E0811709F440C0209721F07F3F21F0E9
:1055B00030E003C031E001C0322F90E030FD31C057
:1055C000089FF001099FF00D1124DF01A554BE4F83
:1055D00011963C911197371324C03C91361321C08A
:1055E00012963C91129731111CC013964D915C910B
:1055F00014974C1B5D0B483C510598F48091B90100
:105600008F7080618093B901E054FE4F80818F706C
:105610008061808384EB91E00E949D1E0E94A62AF7
:1056200003C001968770BDCFDF91CF911F910F917D
:105630000895A1E1B0E0EFE1FBE20C94F8358C01B4
:1056400085E0F801DE011D9601900D928A95E1F743
:10565000D8011296EC909091B4012091B50140913F
:10566000B7015091B8014115510531F02F3F31F488
:1056700081E09F3F19F403C081E001C080E080FD1C
:1056800052C1F801D080C180A380B48084EB882E01
:1056900081E0982EF090B601B501641B750BFF20D8
:1056A00009F4FEC08091B901382F307F683C710544
:1056B00008F0C8C0311189C02C1112C09D1110C052
:1056C000FE2CE1100DC08F7080618093B901C40180
:1056D0000E949D1E8091B901D80115968C933DC101
:1056E000A114B10439F0BFEFCB1206C081E0DB1288
:1056F00003C003C081E001C080E080FD03C081E001
:105700008E2502C080E090E080FF10C04E2D6C2DF1
:105710008D2D0E94C528882349F084EB91E00E94DA
:105720009D1EE4EBF1E086E0DF0194C0A114B1041A
:1057300039F0BFEFCB1206C081E0DB1203C003C01B
:1057400081E001C080E080FD03C081E08E2502C0C1
:1057500080E090E0E82FE170BE2E80FF2CC04E2D3F
:105760006C2D8D2D0E94C528F82E811124C0DD8658
:10577000CE868D859E850E94A932292F22952F7075
:10578000223018F0243090F405C09F7059F0811138
:1057900009C0E3C09F7031F0D80115969C91907FAD
:1057A00009F4DBC0805E883008F4D7C0C8010E94CD
:1057B0009D1EFB2CD2C0FE2CEE2009F4CEC08091A1
:1057C000B90181608093B90148C02C1106C09D11B8
:1057D00004C0E11002C0F80185C0C8010E9449332D
:1057E000882351F1EE2041F12091B901822F829559
:1057F0008F7090E0029774F08091B4019091B501A0
:1058000098878F831986BB86AA862C87CE01079638
:105810000E949D1E86E0F801A4EBB1E001900D927C
:105820008A95E1F70E94B02A0AC02C15C1F0C80180
:105830000E94493381111DC0C8010E949D1EFF2492
:10584000F3948BC03111F1CF84EB91E00E949D1E47
:1058500086E0D4011D928A95E9F7F12C7EC09D1156
:10586000E6CFE110E4CFF8018583C8010E949D1EB8
:1058700054C0EE2009F32091B901822F82958F70D8
:1058800090E002973CF28091B4019091B5019A8327
:1058900089831B82BD82AC822E83CE010196B8CF54
:1058A000683C7105D0F5FE2CEE2031F22C1127C09A
:1058B0009D1125C02091B90120FD18C0822F82952D
:1058C0008F70482F50E04115510581F0F801258374
:1058D0004F30510541F08F5F982F9295907F822F26
:1058E0008F70892B8583C8010E949D1E86E0F80178
:1058F000A4EBB1E001900D928A95E1F72EC0C801AA
:105900000E944933811186CF8091B90181608093D3
:10591000B901C8010E949D1E20C086E0D4011D92DD
:105920008A95E9F71AC0EE2009F486CFC8010E94D3
:105930004933F82E882309F47FCF86E0F801A4EBE1
:10594000B1E001900D928A95E1F78091B4019091B8
:10595000B5010E94A9320E94B02A8F2D6196ECE019
:105960000C941436ACE0B0E0E8EBFCE20C94F635B5
:10597000AE014F5F5F4F7A018CE0FA0111928A9578
:10598000E9F708EA10E06A019EEA692E90E0792EB4
:1059900088248394912CF80180818F3F09F447C0BB
:1059A000F894E82FE295EF70F0E021A98F70A40140
:1059B00002C0440F551F8A95E2F7CA01922F982B17
:1059C00091AB92A98095892382AB789400C0EEEACE
:1059D000F0E021E030E0A12CB12C41914F3F89F063
:1059E000A42FA295AF70B0E0D0968C9190E04F704C
:1059F00002C0959587954A95E2F780FD02C0C901DE
:105A000002C080E090E0A82AB92A220F331F50E09C
:105A1000EE3BF50711F7F80180818F3F11F00E94EE
:105A2000E528F0EAFA95F1F7F601B182A0820F5F5E
:105A30001F4FF2E0CF0ED11C6016710609F0ABCFFC
:105A40004CE050E0B70185E191E00E94E736892BF8
:105A500089F08CE0F701A5E1B1E001900D928A9503
:105A6000E1F781E08093F0010E94EB309093EF0129
:105A70008093EE018091F001811102C080E020C08E
:105A80008091EE019091EF010E9456300597B0F39E
:105A90004CE050E065E171E089E291E00E94E73678
:105AA000892B59F08CE0E5E1F1E0A9E2B1E0019049
:105AB0000D928A95E1F781E001C080E01092F0013B
:105AC0002C96EEE00C941236FC0193819330D9F0C1
:105AD00068F4913081F0923009F054C080EB97E384
